:020000040800F2
:1000000050080020C9230008870100088901000862
:100010008D01000891010008950100080000000012
:10002000000000000000000000000000990100082E
:100030009B010008000000009D0100089F010008CE
:10004000E3230008E3230008E3230008E323000878
:10005000E3230008E3230008E3230008E323000868
:10006000E3230008E3230008E3230008E323000858
:10007000E3230008E3230008E3230008E323000848
:10008000E3230008E3230008E3230008E323000838
:10009000E3230008E3230008E3230008E323000828
:1000A000E3230008E3230008E3230008E323000818
:1000B000E323000895280008AB280008E323000884
:1000C000E3230008E3230008E3230008E3230008F8
:1000D000E3230008E323000855070008E323000892
:1000E000E3230008E3230008E323000800F002F8FC
:1000F00000F03AF80AA090E8000C82448344AAF188
:100100000107DA4501D100F02FF8AFF2090EBAE885
:100110000F0013F0010F18BFFB1A43F0010318473B
:10012000A02E0000C02E0000103A24BF78C878C16D
:10013000FAD8520724BF30C830C144BF04680C60ED
:10014000704700000023002400250026103A28BF35
:1001500078C1FBD8520728BF30C148BF0B60704739
:100160001FB51FBD10B510BD02F0EFFE1146FFF721
:10017000F7FF00F007F902F00DFF03B4FFF7F2FFFD
:1001800003BC02F015FF704700BFFEE700BFFEE7AB
:1001900000BFFEE700BFFEE770477047704770473B
:1001A0000CB50020019000906C48006840F480304D
:1001B0006A49086000BF6948006800F40030009098
:1001C0000198401C0190009818B90198B0F5A06FF3
:1001D000F1D16248006800F4003010B101200090B5
:1001E00001E0002000900098012843D15C4800689D
:1001F00040F010005A4908600846006820F00300EB
:1002000008600846006840F00200086053484068F3
:10021000524948600846406848600846406840F4D3
:10022000806048600846406820F47C1048600846BA
:10023000406840F4F81048600846006840F080705C
:10024000086000BF4548006800F000700028F9D041
:100250004248406820F00300404948600846406832
:1002600040F00200486000BF3C48406800F00C00CD
:100270000828F9D10CBD10B5FFF792FF10BD10B5DD
:100280003648006840F0010034490860084640687C
:1002900034490840314948600846006832490840FE
:1002A0002E4908600846006820F48020086008464F
:1002B000406820F4FE0048604FF41F008860FFF79C
:1002C000DAFF4FF000602949086010BD10B5002129
:1002D00000200022214B5B6803F00C0121B10429AE
:1002E00006D0082928D107E0214B224C236027E0C3
:1002F000214B204C236023E0184B5B6803F4701003
:10030000164B5B6803F48032022303EB904022B962
:100310001A4B4343174C23600DE0104B5B6803F40A
:10032000003323B1124B4343124C236003E0124BC2
:100330004343104C236003E00D4B0E4C236000BF81
:1003400000BF064B5B68C3F303130D4CE15C094B24
:100350001B68CB40074C236010BD0000001002401A
:10036000002002400000FFF8FFFFF6FE08ED00E06D
:1003700000127A00000000200024F40000093D0073
:100380000400002002F040F84FF4A06000F0FAFAF8
:1003900002F00EFA02F03AFA40F27121042002F063
:1003A00097FA02F093FD02F0A9FA4FF4964000F09C
:1003B000D0FA10E000240BE0074830F8140028B908
:1003C000064951F8240000F00BF803E0601CC4B2A9
:1003D000052CF1DB00BFEDE77000002014000020C9
:1003E00010B50446A04710BD0A2017490880704781
:1003F00010B502F071FD14201349488010BD10B5EE
:1004000000F0ADFA0A201049888010BD10B502F046
:1004100071FA64200C49C88010BD4FF4FA700A4983
:100420000881704700200CE0074931F8101031B105
:10043000054931F81010491E034A22F81010411CDA
:10044000C8B20528F0DB7047700000202F48007804
:100450007047024600210AE001EB41002C4B13F8E3
:100460002000904201D101207047481CC1B22748AA
:1004700000788142F0DB0020F6E707B59DF8000028
:10048000FFF7E7FFB8B92148007800EB40002049AA
:1004900001EB80000099016001994160029981603F
:1004A0001A480078401C19490870084600780A2844
:1004B00001DB092008700EBD10B50146144A13680F
:1004C0000B6053684B6092688A60002012E000EB7A
:1004D00040020F4B03EB8203421C02EB42020C4C26
:1004E00004EB820214681C6054685C6092689A6035
:1004F000421CD0B20928EADB044A1278012A04DB44
:10050000024A1278521E014B1A7010BD28000020BA
:100510007A00002010B586B004460121042000F0C6
:10052000DBFD0121480400F0E4FD26208DF80000E9
:1005300000208DF801008DF8020001208DF80300E5
:10054000684600F024FA9F4801F03AFD18208DF823
:1005500017000420ADF8140003208DF8160005A93B
:10056000994800F0DDFA04208DF817000820ADF856
:10057000140005A9944800F0D3FA01940020ADF8C6
:1005800010000C20ADF80E000020ADF80C00ADF806
:100590000A00ADF8080001A98A4801F054FD0022C4
:1005A00040F22661874801F0E6FD012240F2255124
:1005B000844801F0E0FD0121824801F0D0FD802156
:1005C000804801F0B4FE06B010BD30B50022002313
:1005D0007E4CA4797E4D2C70002007E07B4D441D9D
:1005E0002D5D7B4C641C2554441CE0B20328F5DBD4
:1005F000764C617C4FF6FF7404EA0121734CA47CB5
:100600000C44A1B2724C61810124724D2C7030BD3A
:1006100030B5044600257048007890B900206F4935
:1006200008706F490870FD2C2AD1084601780078BF
:10063000401C6B4A1070654844540120664908709C
:100640001EE067480078012805D10A2C03D000205D
:100650006149087030BD624801780078401C604AEA
:1006600010705A484454104600780A2808D1FF2CCC
:1006700001D1FFF7AAFF00205949087056490870B8
:1006800000BFE7E710B5FD20564908700A20487002
:1006900000208870C8700871534800784871722033
:1006A00088710020C8710872FF2048720A204F49E3
:1006B000087000204E490870012240F2266141482E
:1006C00001F059FD10BD07B5FD20464908700A200C
:1006D000487000208870C8700871434800784871DD
:1006E0009DF8000088710020C8710872FF204872D0
:1006F0000A203E49087000203D490870012240F25E
:100700002661304801F037FD0EBD324A1278012AC9
:100710000BD12F4A1368036053684360926882606C
:1007200001220A7000222B4B1A7070472A48007869
:1007300060B12A480078401C2849087008460078B3
:10074000142806DD00202449087002E00020234917
:100750000870704710B540F225511A4801F0DAFDD3
:1007600058B1184801F06CFDC4B22046FFF750FFA5
:1007700040F22551134801F0DAFD40F2266111489C
:1007800001F0DEFDE8B11A4800781849097888427E
:100790000CDA1448164A1278815C0A4801F04CFDC4
:1007A00013480078401C124908700AE000201049E4
:1007B00008700E490870002240F22661014801F0DD
:1007C000DAFC10BD0044004000080140F2000020A7
:1007D000240100202F0000202B0000202C000020EE
:1007E0002A0000200B010020500000202D000020D6
:1007F0002E0000200EB500205C4908705C4800887F
:10080000401C5B49088059495A48FFF77EFF57480A
:10081000007801287ED1002054490870554840894D
:10082000554948810020554908700AE00021524886
:10083000401C524A1278815450480078401C4F495D
:1008400008704E4800780928F0DB4A4800785228A2
:1008500014D008DC21281FD023282DD040283BD0DD
:10086000512846D106E053280BD057280CD05828E1
:100870003FD10DE0052002F087F83BE002F08AF856
:1008800000BF02F087F835E0022002F07DF831E089
:10089000032002F079F82DE036484078384909788D
:1008A000884208D1222034490870012002F0AAF9B8
:1008B000012002F0B1F91DE02E4840783049097856
:1008C000884208D124202C490870022002F09AF9AD
:1008D000022002F0A1F90DE0264840782849097865
:1008E000884205D1032002F08DF9032002F094F92B
:1008F00000BF00BF00BF1D48007801280FD10020B5
:100900001A4908701C48016800914168019180688B
:10091000024600E003E002900098FFF7AEFD1448A5
:100920000088142814DD002011490880FFF78EFD8F
:1009300001280DDB1048FFF7BFFD0F48016800914B
:10094000416801918068024602900098FFF7BBFE63
:100950000EBD10B504462046FFF7DCFD10BD10B5F6
:10096000FFF748FFFFF7E2FE10BD00003200002055
:1009700030000020300100203C0100203300002026
:100980005000002031490143314A1160704770B571
:10099000002100230F22C47804B32D4C246804F4F2
:1009A000E064C4F5E064210AC1F10403CA4044785C
:1009B00004FA03F18478144021430901254C067898
:1009C000A155047804F01F050124AC4005786D1191
:1009D000AD0005F1E025C5F8004109E0047804F018
:1009E0001F050124AC401C4D0678761145F82640C1
:1009F00070BD1A4A0A400243154B1B1F1A6070470C
:100A000039B1134A121D12680243114B1B1D1A60A3
:100A100006E00F4A121D126882430D4B1B1D1A601F
:100A20007047042808D14FF0E021096941F0040122
:100A30004FF0E022116107E04FF0E021096921F059
:100A400004014FF0E0221161704700000000FA0538
:100A50000CED00E000E400E080E100E080FFFF1F1B
:100A600010B50446CC48844208D10121042000F08E
:100A70004DFB0021042000F049FB46E0C7488442BA
:100A800008D10121082000F041FB0021082000F0DE
:100A90003DFB3AE0C248844208D10121102000F019
:100AA00035FB0021102000F031FB2EE0BD488442D0
:100AB00008D10121202000F029FB0021202000F096
:100AC00025FB22E0B848844208D10121402000F0F3
:100AD0001DFB0021402000F019FB16E0B3488442C2
:100AE00008D10121802000F011FB0021802000F0BE
:100AF0000DFB0AE0AE48844207D10121801500F0C9
:100B000005FB0021A01500F001FB10BD10B501216F
:100B1000084600F0FBFA0021012000F0F7FA10BDB2
:100B20002DE9F04102460025002600200023002484
:100B3000002791F803C00CF00F0591F803C00CF0EA
:100B4000100CBCF1000F03D091F802C04CEA05056F
:100B500091F800C0BCF1000F31D0146800202BE0E8
:100B60004FF0010C0CFA00F3B1F800C00CEA0306D8
:100B70009E4220D183004FF00F0C0CFA03F7BC43C8
:100B800005FA03FC4CEA040491F803C0BCF1280FF9
:100B900006D14FF0010C0CFA00FCC2F814C00AE0B8
:100BA00091F803C0BCF1480F05D14FF0010C0CFACD
:100BB00000FCC2F810C0401C0828D1D31460B1F862
:100BC00000C0BCF1FF0F34DD546800202EE000F1BE
:100BD000080C4FF0010808FA0CF3B1F800C00CEA59
:100BE00003069E4221D183004FF00F0C0CFA03F74D
:100BF000BC4305FA03FC4CEA040491F803C0BCF1C1
:100C0000280F05D100F1080C08FA0CF8C2F814807E
:100C100091F803C0BCF1480F07D100F1080C4FF068
:100C2000010808FA0CF8C2F81080401C0828CED33E
:100C30005460BDE8F0814FF6FF71018002218170A0
:100C40000421C17070470246002093680B400BB12D
:100C5000012000E0002070470146886880B270479C
:100C600002460020D3680B400BB1012000E00020B9
:100C700070470146C86880B27047016170474161A2
:100C800070470AB1016100E041617047C16070477F
:100C90004FF480320A438261816182618269826994
:100CA000704702460020434B18684FF68073184087
:100CB00040EA021008433F4B186070473E49C86144
:100CC0007047F0B50A46002300240021002500F0FB
:100CD0000046B6F1004F02D1364EF16901E0354EC3
:100CE0007168C0F3034583B200F44016B6F5401FA7
:100CF00008D121F070612F4E766826F070662D4F76
:100D00007E6012E000F48016B6F5801F06D103263F
:100D100006FA05F4A14341F0706106E0460D360184
:100D200003FA06F6B14341F0706122B1460D360177
:100D300003FA06F6314300F00046B6F1004F02D147
:100D40001C4EF16101E01B4E7160F0BD30B5002218
:100D50008B071C0F0F2303FA04F2164B08338C1079
:100D600053F824309343134C08348D1044F8253045
:100D700023468C1053F824308C07240F00FA04F417
:100D800023430C4C08348D1044F8253030BD0A49FB
:100D9000DC3108607047000000080140000C014091
:100DA000001001400014014000180140001C0140E7
:100DB0000020014000000140000020420E49086070
:100DC00070470D49486070470B49886070474AF684
:100DD000AA200949086070474CF6CC4006490860D3
:100DE000704701460020044AD2680A400AB1012037
:100DF00000E000207047000000300040DF4800683D
:100E000040F00100DD49086008464068DC490840C0
:100E1000DA49486008460068DA490840D74908605E
:100E20000846006820F4802008600846406820F4E6
:100E3000FE0048604FF41F0088607047CF49096882
:100E400021F48031CD4A11601146096821F48021D6
:100E50001160B0F5803F03D0B0F5802F0ED106E0D1
:100E6000C649096841F48031C44A116007E0C349AA
:100E7000096841F4A021C14A116000E000BF00BF31
:100E8000704710B501460022002300204A11012AB4
:100E900002D1BA4C236806E0022A02D1B74C236A79
:100EA00001E0B64C636A01F01F02012494401C402B
:100EB0000CB1012000E0002010BD38B500200090EA
:100EC0000024002500BF3120FFF7DBFF0546009816
:100ED000401C00900098B0F5A06F01D0002DF2D01A
:100EE0003120FFF7CEFF08B1012400E000242046A6
:100EF00038BD01460020A14A106820F0F80040EA01
:100F0000C10010607047A049086070470246002089
:100F10009A4B586820F47C1042EA01031843974B1F
:100F20005860704798490866704701460020934A08
:100F3000506820F003000843506070478F484068B5
:100F400000F00C007047014600208C4A506820F0E9
:100F5000F00008435060704701460020874A5068FF
:100F600020F4E06008435060704701460020834A47
:100F7000506820F4605040EAC1005060704729B1C9
:100F80007E4A527A02437D4B5A7204E07B4A527A7F
:100F900082437A4B5A7270477B49D8310860704758
:100FA00001460020754A506820F4404008435060D4
:100FB00070470021714A20321170704A82F8201067
:100FC000012802D004280AD104E001216B4A203212
:100FD000117005E00521694A2032117000E000BF60
:100FE00000BF70476949086070476449096A014356
:100FF000624A11627047654944390860704730B5EC
:1010000000210022002400235C4D6D6805F00C01D6
:1010100021B1042905D0082923D105E05C4D0560E4
:1010200022E05C4D05601FE0544D6D6805F47012C0
:10103000524D6D6805F48034022505EB92421CB9CF
:10104000554D554305600BE04C4D6D6805F400357A
:101050001DB14F4D5543056002E04E4D55430560AF
:1010600002E04B4D056000BF00BF444D6D6805F0C8
:10107000F0010909494D6B5C0568DD4045603F4D55
:101080006D6805F4E061090A444D6B5C4568DD401C
:1010900085603A4D6D6805F46051C90A3F4D6B5C3F
:1010A0004568DD40C560354D6D6805F44041890BEC
:1010B0003B4D6B5CC568B5FBF3F5056130BD29B1EF
:1010C0002E4A526902432D4B5A6104E02B4A526961
:1010D00082432A4B5A61704729B1284A92690243D8
:1010E000264B9A6104E0254A92698243234B9A6118
:1010F000704729B1214AD2690243204BDA6104E0EA
:101100001E4AD26982431D4BDA61704729B11B4ADE
:10111000D2680243194BDA6004E0184AD26882436D
:10112000164BDA60704729B1144A12690243134B17
:101130001A6104E0114A12698243104B1A61704728
:1011400012494039086070470F49C86470470B491D
:10115000C87170470948406A40F08070074948628A
:10116000704701460020054A92680A400AB10120F2
:1011700000E000207047014988727047001002406B
:101180000000FFF8FFFFF6FE0000424280044242EA
:1011900000127A000024F40000093D003400002011
:1011A0004400002010B50446FE48844208D10121C5
:1011B000C014FFF7ABFF0021E014FFF7A7FFC4E066
:1011C000B4F1804F08D101210846FFF7ACFF0021A0
:1011D0000120FFF7A8FFB8E0F348844208D10121BD
:1011E0000220FFF7A0FF00210220FFF79CFFACE0E8
:1011F000EE48844208D101210420FFF794FF00212A
:101200000420FFF790FFA0E0E948844208D10121C3
:101210000820FFF788FF00210820FFF784FF94E0F3
:10122000E448844208D101211020FFF77CFF00210F
:101230001020FFF778FF88E0DF48844208D10121C1
:101240002020FFF770FF00212020FFF76CFF7CE0DB
:10125000DA48844208D101214014FFF757FF0021EA
:101260006014FFF753FF70E0D548844209D1012193
:10127000C804FFF74BFF00214FF40020FFF746FFA3
:1012800063E0D048844209D101210805FFF73EFF01
:1012900000214FF48010FFF739FF56E0CA4884421E
:1012A00009D101214805FFF731FF00214FF400105B
:1012B000FFF72CFF49E0C548844208D101214020B6
:1012C000FFF731FF00214020FFF72DFF3DE0C04830
:1012D000844208D101218020FFF725FF00218020D2
:1012E000FFF721FF31E0BB48844208D1012180157E
:1012F000FFF719FF0021A015FFF715FF25E0B648FD
:10130000844209D101210804FFF700FF00214FF4B6
:101310008030FFF7FBFE18E0B048844209D101217C
:101320004804FFF7F3FE00214FF40030FFF7EEFE14
:101330000BE0AB48844208D101218804FFF7E6FEA8
:1013400000214FF48020FFF7E1FE10BD002202884B
:10135000944B98420ED0994B98420BD0B0F1804FED
:1013600008D0914B984205D0904B984202D0904BB8
:10137000984204D14FF68F731A404B881A438D4B15
:10138000984207D08C4B984204D04FF6FF431A4046
:10139000CB881A4302808B8883850B880385814B19
:1013A00098420BD0854B984208D08B4B984205D081
:1013B0008A4B984202D08A4B984201D10B7A03861D
:1013C00001238382704770B5002400220023058C1E
:1013D0004FF6FE7635400584028C8388048B4FF6E9
:1013E0008F752C40B51E2C400D882C43751E2A404D
:1013F0000D892A434D882A436A4DA8420BD06F4D70
:10140000A84208D0744DA84205D0744DA84202D01D
:10141000734DA84213D14FF6F7752A404D892A43E0
:101420004FF6FB752A408D882A434FF6FF652B4007
:101430004FF6FF552B408D892B43CD892B4383805D
:101440000483CD888586028470BD70B50024002297
:101450000023058C4FF6EF7635400584028C838897
:10146000048B48F6FF752C404FF6FF452C400D8845
:101470004FF6FF7606EA05252C434FF6DF752A4026
:101480000D8906EA05152A434D8806EA05152A4303
:10149000444DA84202D0494DA8421DD14FF67F7558
:1014A0002A404D894FF6FF7606EA05152A434FF686
:1014B000BF752A408D8806EA05152A434FF6FF3589
:1014C0002B404FF2FF752B408D8906EA85052B4393
:1014D000CD8906EA85052B4383800483CD88058763
:1014E000028470BD70B5002400220023058C4FF6E5
:1014F000FF6635400584028C8388848B4FF68F7598
:101500002C404FF6FC752C400D882C434FF6FF55B0
:101510002A400D894FF6FF7606EA05252A434D88B5
:1015200006EA05252A431F4DA84202D0234DA842B2
:101530001DD14FF2FF752A404D894FF6FF7606EA1E
:1015400005252A434FF6FF352A408D8806EA0525F2
:101550002A434EF6FF752B404DF6FF752B408D89C3
:1015600006EA05152B43CD8906EA05152B43838032
:101570008483CD888587028470BD70B500220023E6
:101580000024058C4EF6FF7635400584038C848854
:10159000828B48F6FF752A404FF6FF452A400D889A
:1015A00020E00000002C0140000400400008004042
:1015B000000C0040001000400014004000340140C6
:1015C000004C014000500140005401400018004010
:1015D000001C004000200040004001400044014049
:1015E000004801404FF6FF7606EA05252A434DF6EE
:1015F000FF752B400D8906EA05352B434D8806EA19
:1016000005352B43FA4DA84202D0FA4DA84208D125
:101610004BF6FF752C408D894FF6FF7606EA85154F
:101620002C4384808283CD88A0F84050038470BD11
:10163000828B4FF2FF331A408283828B4FF6FF7307
:1016400003EA01231A4382837047F0B50C4615461E
:10165000002200210026078C4EF6FF7C07EA0C07CB
:101660000784828B018C4FF6FF7707EA043640F639
:10167000FF473A404FF6FF7707EA05273A434FF610
:10168000FF7707EA03373A43D94FB8420ED0D94F14
:10169000B8420BD0B0F1804F08D0D74FB84205D038
:1016A000D64FB84202D0D64FB84206D14DF6FF779A
:1016B000394046F48057394305E047F6FF57394033
:1016C00044F48057394382830184F0BD828B4FF606
:1016D000F3731A408283828B0A4382837047F0B58A
:1016E0000C461546002200210026078C4FF6FF6CA1
:1016F00007EA0C070784828B018C4FF6FF7707EA15
:1017000004264FF60C773A404FF6FF7707EA0317A7
:101710002F433A43B64FB8420ED0B64FB8420BD023
:10172000B0F1804F08D0B44FB84205D0B34FB842A3
:1017300002D0B34FB84206D14FF6FF57394046F4B6
:101740008077394305E04FF2FF57394044F4807702
:10175000394382830184F0BD028B4FF2FF331A407C
:101760000283028B4FF6FF7303EA01231A430283BD
:101770007047F0B50C461546002200210026078C64
:101780004FF6EF7C07EA0C070784028B018C4FF6BB
:10179000FF7707EA041640F6FF473A404FF6FF7717
:1017A00007EA03373A434FF6FF7707EA05273A433C
:1017B0008F4FB8420ED08F4FB8420BD0B0F1804F50
:1017C00008D08D4FB84205D08C4FB84202D08C4F14
:1017D000B84206D14FF6DF77394046F0100739435B
:1017E00005E04FF65F77394044F010073943028334
:1017F0000184F0BD028B4FF6F3731A400283028B13
:101800000A4302837047F0B50C46154600220021BA
:10181000068C4FF6FE773E400684028B018C4FF615
:101820000C7632407E1C06EA03162E433243704E7D
:10183000B0420ED06F4EB0420BD0B0F1804F08D006
:101840006D4EB04205D06D4EB04202D06C4EB042EB
:1018500006D14FF6FD76314044F00106314305E0F4
:101860004FF6F576314044F001063143028301849E
:10187000F0BD70B505460C465D4885420ED05D480A
:1018800085420BD0B5F1804F08D05B48854205D02A
:101890005A48854202D05A48854200D100E000BF34
:1018A000208850B92389A28861882846FFF7ABFFBA
:1018B000E1882846FFF79EFF25E0208804280AD10A
:1018C0002389A28861882846FFF753FFE1882846CC
:1018D000FFF742FF17E0208808280AD12389A28851
:1018E00061882846FFF7FBFEE1882846FFF7EEFEF9
:1018F00009E02389A28861882846FFF7A6FEE188CF
:101900002846FFF795FE70BD2DE9F04105460C46CF
:1019100000260127608808B9022600E00026A0887A
:10192000012801D1022700E001272088A0B92389DE
:10193000A28861882846FFF766FFE1882846FFF7FE
:1019400059FF23893A4631462846FFF712FFE188BE
:101950002846FFF701FF13E02389A2886188284603
:10196000FFF707FFE1882846FFF7F6FE23893A468E
:1019700031462846FFF747FFE1882846FFF73AFF40
:10198000BDE8F0810A884B881A438B881A43CB88BC
:101990001A430B891A434B891A438B891A43A0F8BF
:1019A000442070474FF6FF71818000210180C18083
:1019B0004180017270470021018041808180C18097
:1019C000018141818181C181704700210180418075
:1019D000012181800021C1800181704700210180A7
:1019E00041808180C18001814181818170470000F7
:1019F000002C014000340140000400400008004079
:101A0000000C004021B1028842F00102028004E093
:101A100002884FF6FE731A400280704731B1B0F869
:101A2000442042F40042A0F8442005E0B0F84420ED
:101A3000C2F30E02A0F8442070471AB183890B4309
:101A4000838102E083898B43838170478182704761
:101A500041EA0203A0F8483070471AB183890B436A
:101A6000838102E083898B438381704701894FF62C
:101A7000F8721140018170470A46002101894FF632
:101A80008F73194011430181704730B504460D46EC
:101A900029462046FFF7F0FF208940F0070020810B
:101AA00030BD2DE9F04104460D4616461F46602D17
:101AB00006D13B46012231462046FFF75AFE05E09B
:101AC0003B46012231462046FFF79DFE294620462F
:101AD000FFF7D2FF208940F007002081BDE8F081A8
:101AE00030B50C4600210189C9B24FF6FF7505EAF1
:101AF0000325154325432943018130BD2DE9F041DC
:101B000005460E4617469846002443463A46314657
:101B10002846FFF7E5FF2C894FF6F870044044F0A3
:101B200007044FF68F70044044F070042C81BDE828
:101B3000F081F0B504460D4616461F463B46324638
:101B400029462046FFF7CCFF208940F480402081C1
:101B5000F0BD0185828270470A46002101884FF658
:101B60008F731940114301807047F0B50C4615463C
:101B70001E460021002200230189028B038C4FF6B0
:101B8000F877394021434FF6FC473A4040F20117BD
:101B90003A434FF6DD773B404FF6FF7707EA0617EB
:101BA0002F433B43018102830384F0BD0A46002199
:101BB000018B4FF68F7319401143018370470A461A
:101BC0000021018B48F6FF7319404FF6FF7303EABB
:101BD00002231943018370470A460021818B4FF687
:101BE0008F7319401143818370470A460021818B0E
:101BF00048F6FF7319404FF6FF7303EA02231943B7
:101C00008183704721B1028842F08002028004E0A3
:101C100002884FF67F731A400280704721B1828894
:101C200042F00402828004E082884FF6FB731A407F
:101C30008280704721B1828842F00802828004E0ED
:101C400082884FF6F7731A408280704721B18288EC
:101C500042F00102828004E082884FF6FE731A404F
:101C6000828070470A460021018B4FF6F7731940B6
:101C70001143018370470A460021018B4FF2FF7325
:101C800019404FF6FF7303EA02231943018370479B
:101C90000A460021818B4FF6F77319401143818367
:101CA00070470A460021818B4FF2FF7319404FF6AF
:101CB000FF7303EA02231943818370470A46002118
:101CC000018B4FF6FB7319401143018370470A469D
:101CD0000021018B4FF6FF3319404FF6FF7303EAE3
:101CE00002231943018370470A460021818B4FF676
:101CF000FB7319401143818370470A460021818B91
:101D00004FF6FF3319404FF6FF7303EA02231943DE
:101D1000818370470A460021018B4FF67F7319407B
:101D20001143018370470A460021018BC1F30E0164
:101D30004FF6FF7303EA02231943018370470A46F3
:101D40000021818B4FF67F731940114381837047C7
:101D50000A460021818BC1F30E014FF6FF7303EA9F
:101D600002231943818370470A460021018C4FF6F4
:101D7000FD7319401143018470470A460021018C0C
:101D80004FF6F77319401143018470470A4600214A
:101D9000018C4FF6DF7319404FF6FF7303EA02130D
:101DA0001943018470470A460021018C4FF67F7366
:101DB00019404FF6FF7303EA021319430184704779
:101DC0000A460021018C4FF6FF5319404FF6FF736E
:101DD00003EA02231943018470470A460021018C5B
:101DE0004FF2FF7319404FF6FF7303EA02231943C2
:101DF000018470470A460021018C4DF6FF7319409B
:101E00004FF6FF7303EA023319430184704730B57C
:101E1000002301248C40A3B2048C9C430484048CD2
:101E200002FA01F5ADB22C43048430BD30B5002375
:101E300004248C40A3B2048C9C430484048C02FAD6
:101E400001F5ADB22C43048430BD70B503460020CB
:101E500000241846183001258D40ACB21D8CA543D6
:101E60001D8409B1082909D100EB6100056825F03E
:101E7000700505600568154305600EE00D1FC5F38C
:101E80004E052844056825F4E045056005684FF6D1
:101E9000FF7606EA02263543056070BD21B102884F
:101EA00042F00202028004E002884FF6FD731A40FD
:101EB0000280704721B1028842F00402028004E0EF
:101EC00002884FF6FB731A400280704721B1828866
:101ED00042F08002828004E082884FF67F731A40CD
:101EE0008280704702884FF6F7731A40028002889A
:101EF0000A430280704782884FF68F731A408280AF
:101F000082880A438280704702894FF6F8731A402C
:101F1000028102890A430281704702894FF67F736A
:101F20001A40028102890A43028170478184704706
:101F30008185704781867047018770478187704728
:101F4000A0F84010704702884FF6FF431A40028005
:101F500002880A43028070470146888E7047014616
:101F6000088F70470146888F70470146B1F84000DE
:101F700070470146888C70470146088D70470246BD
:101F80000020138A0B400BB1012000E000207047B5
:101F9000CA430282704730B5024600200023002465
:101FA000158A05EA0103958905EA010413B10CB10C
:101FB000012000E0002030BDCA43028270470000CB
:101FC00010B50446FB48844209D101218803FFF77C
:101FD0009DF800214FF48040FFF798F832E0F64872
:101FE000844209D101214804FFF79DF800214FF4F4
:101FF0000030FFF798F825E0F048844209D101212C
:102000008804FFF790F800214FF48020FFF78BF849
:1020100018E0EB48844209D10121C804FFF783F896
:1020200000214FF40020FFF77EF80BE0E5488442E2
:1020300008D101210805FFF776F800214FF4801040
:10204000FFF771F810BD2DE9F04786B005460E4642
:102050000024A24600BFA1460027B08900B100BFFE
:102060002F462C8A4CF6FF700440F08804432C82E3
:10207000AC894EF6F3100440B08831890843718969
:1020800008430443AC81AC8A4FF6FF400440B0895A
:102090000443AC8201A8FEF7B2FFC648874202D1D2
:1020A000DDF810A001E0DDF80CA0A88900F40040E4
:1020B00040B10AEBCA0000EB0A1031684900B0FBDE
:1020C000F1F807E00AEBCA0000EB0A10316889005A
:1020D000B0FBF1F86420B8FBF0F0040120096421A2
:1020E00001FB1089A88900F4004040B1322000EBC8
:1020F000C900B0FBF1F000F00700044308E0322013
:1021000000EB09106421B0FBF1F000F00F00044374
:102110002C8106B0BDE8F0874FF416510160002114
:102120008180C18001810C21418100218181704722
:1021300010B502460020108A4FF2FF0318400B88AA
:102140004C8823438C882343CC8823431843108234
:1021500010BD0021018041808180C180704721B184
:10216000828942F40052828104E082894DF6FF7335
:102170001A4082817047F0B50346002400260025EE
:10218000002040F66A17B94200D100BF1846C1F3DB
:10219000421401F01F06012707FA06F5012C01D1B0
:1021A0000C3004E0022C01D1103000E014301AB1E0
:1021B00007682F43076002E00768AF430760F0BD80
:1021C0001AB1838A0B43838202E0838A8B43838222
:1021D0007047028A4FF6F0731A400282028A0A435D
:1021E0000282704782894FF2FF731A40828182898E
:1021F0000A438281704721B1828942F002028281C2
:1022000004E082894FF6FD731A4082817047028A8A
:102210004FF6DF731A400282028A0A430282704735
:1022200021B1028A42F48042028204E0028A4BF623
:10223000FF731A4002827047C1F308028280704720
:1022400001468888C0F308007047818941F0010188
:1022500081817047028BD2B20283028B42EA012253
:1022600002837047028B02F47F420283028B0A438F
:102270000283704721B1828A42F02002828204E008
:10228000828A4FF6DF731A408282704721B1828AB8
:1022900042F01002828204E0828A4FF6EF731A4005
:1022A0008282704721B1828A42F00802828204E071
:1022B000828A4FF6F7731A408282704721B1828971
:1022C00042F40042828103E08289C2F30E028281DD
:1022D000704721B1828A42F40062828204E0828ADD
:1022E0004FF2FF731A4082827047828A4FF6FB7367
:1022F0001A408282828A0A438282704721B1828A8E
:1023000042F00202828204E0828A4FF6FD731A4094
:102310008282704702460020B1F5007F00D100BFE5
:1023200013880B400BB1012000E00020704701F43E
:102330000072B2F5007F00D100BFCA43028070472F
:1023400070B50246002400230025002040F66A16DE
:10235000B14200D100BFC1F3421501F01F030126B5
:1023600006FA03F3012D02D19689334006E0022DCF
:1023700002D1168A334001E0968A33400C120126BE
:1023800006FA04F41688344013B10CB1012000E0C1
:10239000002070BD10B50022002340F66A14A1424F
:1023A00000D100BF0A1201249440A3B2DC43048090
:1023B00010BD0000003801400044004000480040CB
:1023C000004C004000500040094880470948004741
:1023D000FEE7FEE7FEE7FEE7FEE7FEE7FEE7FEE7D5
:1023E000FEE7FEE704480549054A064B7047000032
:1023F0007F020008ED000008500200205008002075
:10240000500400205004002010B56FF00400FEF7C7
:1024100008FB2E4800682E49B0FBF1F02D490870EA
:102420000846007800EB4001C1EBC0104FF6FF7189
:1024300001EAC0002849088010BD0146254A1278EB
:102440004A434FF0E0235A6100229A611A4612690A
:1024500042F001021A6100BF4FF0E022106900F063
:1024600001021AB100F48032002AF5D04FF0E022C8
:10247000126922F001024FF0E0231A6100229A61F2
:1024800070470146144A12884A434FF0E0235A61CC
:1024900000229A611A46126942F001021A6100BFD5
:1024A0004FF0E022106900F001021AB100F480320E
:1024B000002AF5D04FF0E022126922F001024FF01D
:1024C000E0231A6100229A6170470000000000209A
:1024D00000127A00480000204A00002000BF011EC0
:1024E000A0F1010290B2FAD1704708B50121142081
:1024F000FEF7F2FDC020ADF8000048208DF8030083
:1025000069466548FEF70CFB3020ADF80000482016
:102510008DF8030069466148FEF702FB0F20ADF815
:10252000000048208DF8030069465C48FEF7F8FA81
:1025300008BD70B500250026002427E05748FEF7A7
:102540008BFB0F2121EA00050A20FFF79AFF534871
:10255000FEF782FB0F2121EA00060024B54215D1C7
:1025600005F0080008B144F0080405F0040008B1C3
:1025700044F0040405F0020008B144F0020405F040
:10258000010008B144F00104204670BD002CD5D0F4
:102590000020FAE72DE9F041002540213E48FEF7F2
:1025A00052FB08B945F0010580213B48FEF74BFB83
:1025B00008B945F0020510213848FEF744FB08B978
:1025C00045F0040520213548FEF73DFB08B945F0EC
:1025D00008050A20FFF755FF002640212E48FEF788
:1025E00032FB08B946F0010680212B48FEF72BFB91
:1025F00008B946F0020610212848FEF724FB08B966
:1026000046F0040620212548FEF71DFB08B946F0D8
:102610000806B54238D1002410E00120A040C7B21E
:1026200005EA070020B102211D4A601C115403E095
:1026300000211B4A601C1154601CC4B2102CECDB3E
:1026400000241FE01748005D022806D11448005DF1
:1026500018B90320144908550EE01248005D38B936
:102660000F48005D022803D101200F49085503E0FF
:102670000B48005D0C4908550948005D094908559B
:10268000601CC4B2112CDDDBBDE8F08101460A46B6
:102690000548805C704700000008014000100140C0
:1026A0006A010020590100204801002008B50121DD
:1026B0000420FEF711FD3320ADF8000010208DF846
:1026C000030003208DF8020069463648FEF728FA19
:1026D00008BD112802DA0121334A1154704711282C
:1026E00002DA0021304A11547047052802DA01212C
:1026F0002D4A11547047052802DA01212A4A115443
:102700007047012806D0022808D003280BD00428DF
:1027100013D10DE00121254A11600FE00121234A68
:10272000121F11600AE00121204A103A116005E0F1
:1027300001211E4A143A116000E000BF00BF70473B
:10274000012806D0022808D003280BD0042813D172
:102750000DE00021154A11600FE00021134A121FFD
:1027600011600AE00021114A103A116005E00021D1
:102770000E4A143A116000E000BF00BF704700B578
:1027800001230CE00848C05C012803D11846FFF77C
:10279000B8FF02E01846FFF7D3FF581CC3B2042B62
:1027A000F0DD00BD000801407B01002094012142C2
:1027B0001FB501210220FEF79CFC0020ADF80A00A5
:1027C000ADF80600C720ADF8080041F61F40ADF88F
:1027D000040001A93A48FEF7B9FD01221146384824
:1027E000FFF72BF91D208DF8000001208DF8030064
:1027F00000208DF8010003208DF802006846FEF7E6
:10280000C6F801212E48FFF7FDF81FBD1FB50121B5
:102810000420FEF76EFC0020ADF80A00ADF80600BB
:102820000920ADF8080041F61F40ADF8040001A9E9
:102830002448FEF78BFD012211462248FFF7FDF8E0
:102840001E208DF8000001208DF8030000208DF877
:10285000010003208DF802006846FEF798F8012178
:102860001848FFF7CFF81FBD014619B90020164AD6
:1028700010800CE0012905D113480088401C124A41
:10288000108004E0022902D10F48008870470E48EA
:102890000088FBE710B50D480078401C0B49087014
:1028A00001210748FFF788FB10BD10B50120FFF795
:1028B000DBFF01210348FFF77FFBFDF7B3FD10BDF0
:1028C00000040040000800404C0000204E000020A2
:1028D00070B505460C4645F25550FEF76FFA28468E
:1028E000FEF76FFA2046FEF76FFAFEF770FAFEF772
:1028F00073FA70BD10B5FEF76AFA10BD10B501206D
:10290000FFF7E7FE0220FFF7E4FE2620FA490870F1
:102910000120FFF7E4FE0220FFF7E1FE002406E0BD
:102920000020F6490855F6490855601CC4B2112C20
:10293000F6DB10BD012810D1F04A125C2AB9012241
:10294000EE4B1A54EF4B1A7004E00022EB4B1A5472
:10295000EC4B1A70EC4A115415E005280CD1E74AEB
:1029600052791AB90122E54B5A7102E00022E34B79
:102970005A71E54A115406E0052804D00122DF4BC4
:102980001A54E14A11547047072802DA0021DB4A41
:10299000115470470320DB4908700420DB4908709C
:1029A000704710B5D8494878FFF799FE10BD0EB5AD
:1029B000D248007A01287DD1D5480088401CD449EE
:1029C0000880D0480078012856D108460088192888
:1029D00004DACD49087AFFF77CFE93E0CC48008802
:1029E000322826DACA48008819281DD17320C9491F
:1029F0000870C148007848700121C64881700421E0
:102A0000C170BD480178C34801714FF6FF70C149DC
:102A1000488108460168009141680191806802463A
:102A200002900098FDF729FDB7494878FFF757FE57
:102A300068E00020B64908807320B6490870AE48A7
:102A4000007848700121B34881700421C170AA4800
:102A50000178B04801714FF6FF70AE494881488156
:102A60000846016800914168019180680246029021
:102A70000098FDF702FD45E0A2480078022839D110
:102A8000A149087AFFF725FEA1480088192839DBFB
:102A90007320A049087098480078487001219D482B
:102AA00081700521C170944801789A4801714FF6F0
:102AB000FF7000E022E0974948814881084601689C
:102AC0000091416801918068024602900098FDF7EC
:102AD000D4FC00208E4908808C480078012805DB52
:102AE0008A480078401E894908700BE0002083491D
:102AF000087207E000208149087203E08249087AE1
:102B0000FFF7EDFD0EBD00B57C488079012804D1AA
:102B1000FFF73AFF0620FFF737FF00BD7E48007839
:102B2000C82804DA7C480078401C7B490870734848
:102B3000807873498870704778480078C82804DA2C
:102B400076480078401C754908706C48C0786C491C
:102B5000C870704710B56C494879FFF7C0FD10BDCB
:102B600010B50446092C18D2DFE804F01705080B4D
:102B7000170E11171400FFF714FF0FE0FFF7CEFF39
:102B80000CE0FFF7D9FF09E0FFF7E4FF06E0FFF7ED
:102B9000BAFF03E0FFF70BFF00E000BF00BF10BD6E
:102BA00010B50320FFF7ADFD0420FFF7AAFD10BD0F
:102BB00010B50320FFF7A5FD0420FFF7C1FD10BDF0
:102BC00010B50320FFF7BCFD0420FFF7B9FD10BDD1
:102BD00010B50320FFF795FD10BD10B50320FFF7DA
:102BE00090FD10BD10B50320FFF7AAFD10BD10B574
:102BF000002404E02046FFF7B3FF601CC4B2072C9A
:102C0000F8DB10BD46490870704700204449087041
:102C10007047434800787047012806D0022808D042
:102C200003280AD0042810D10BE001213D4A11707D
:102C30000CE001213C4A117008E001213B4A11706F
:102C400004E001213A4A117000E000BF00BF34499E
:102C500008707047012802D0022808D103E0002143
:102C6000304A117004E000212F4A117000E000BFCB
:102C700000BF2B49087070470EB5294800782D49D0
:102C80000978884202D000202B4908700420FFF701
:102C9000FDFC022803D10020284908801EE02748B7
:102CA0000088401C2549088008460088B0F5FA7F56
:102CB00014DD00201A49087020480088B0F5167FFE
:102CC0000ADD0220FFF7E2FC022805D1FDF7DAFC5D
:102CD0004FF4FA7019490880FFF784FF1048007814
:102CE00005286ED2DFE800F0032C5F89A8000020E1
:102CF00011490870C0E00000500000208C01002045
:102D00009D01002051000020AE0100205200002053
:102D100066000020C0010020680000206A0000203A
:102D200056000020600000206100002062000020AA
:102D300063000020570000205800002054000020AD
:102D40005948007870B90320FFF7A0FC022803D18E
:102D5000FFF79CFC022825D1FFF722FF01205249F2
:102D600008701FE05048007801281BD10320FFF7AE
:102D70008DFC022804D00220FFF788FC02280FD126
:102D8000FFF71EFF222049490870494800780128B2
:102D900008D100204649087001204649087001E02A
:102DA000FFF7FEFE68E04048007858B90120FFF7C1
:102DB0006DFC022820D0FFF7FBFE01203A49087085
:102DC0001AE058E038480078012815D1FFF75EFC7A
:102DD00002280FD1FFF7F4FE24203449087036484A
:102DE0000078012808D100203349087001203149BA
:102DF000087001E0FFF7DCFE00BF2B48007810B937
:102E000001202949087028480078012813D1FFF7CC
:102E1000E4FE0320FFF73AFC02280CD141202349AD
:102E2000087026480078012805D100202349087041
:102E30000120204908701FE01B48007810B90120CC
:102E40001949087018480078012813D1FFF7CAFE05
:102E50000220FFF71BFC02280CD141201349087007
:102E600017480078012805D1002015490870012075
:102E70001049087000E000BF00BF0E48007801282C
:102E80000DD100200B490870084801680091416885
:102E900001918068024602900098FDF7EEFA094819
:102EA0000078094908700EBD58000020C0010020BC
:102EB000600000206E000020610000206200002001
:102EC00063000020560000205700002010B5FFF7D7
:102ED0000CFBFFF7EBFB10BD10B5FFF75BFB00240D
:102EE00014E0174810F8140070B1154911F81400D7
:102EF000FFF7CCFB032807D1114A12F8141002EB9C
:102F000044025078FFF716FD601CC4B2102CE8DBB9
:102F1000FFF76DFEFFF733FC0420FFF7B7FB022835
:102F200003D10120FFF76EFE07E00420FFF7AEFBA0
:102F3000032802D10220FFF765FEFFF79DFE10BDBA
:102F4000CC010020704770477047754600F02CF8A0
:102F5000AE4605006946534620F00700854618B086
:102F600020B5FFF73FFABDE820404FF000064FF0D4
:102F700000074FF000084FF0000B21F00701AC46AE
:102F8000ACE8C009ACE8C009ACE8C009ACE8C009CD
:102F90008D46704710B50446AFF300802046BDE86B
:102FA0001040FDF7EAB8000000487047EC0100202F
:102FB00001491820ABBEFEE7260002007047000062
:102FC000E02F000800000020700000002801000829
:102FD0005030000870000020E007000044010008A5
:102FE00000A24A04000000000000000001020304E7
:102FF00006070809E9030008F1030008FF030008B9
:103000000D0400081B04000800000000000100007F
:10301000000000000000000001020304010203049C
:10302000060708090204060800000000000000006E
:103030000000000000000000000000000000000090
:103040000000000000000000000000000000000080
:04000005080000ED02
:00000001FF
